
RMEC_Basic.elf:     file format elf32-avr

Sections:
Idx Name          Size      VMA       LMA       File off  Algn
  0 .text         00000230  00000000  00000000  00000054  2**1
                  CONTENTS, ALLOC, LOAD, READONLY, CODE
  1 .data         00000000  00802000  00802000  00000284  2**0
                  CONTENTS, ALLOC, LOAD, DATA
  2 .comment      00000030  00000000  00000000  00000284  2**0
                  CONTENTS, READONLY
  3 .note.gnu.avr.deviceinfo 00000040  00000000  00000000  000002b4  2**2
                  CONTENTS, READONLY
  4 .debug_aranges 00000020  00000000  00000000  000002f4  2**0
                  CONTENTS, READONLY, DEBUGGING
  5 .debug_info   00003629  00000000  00000000  00000314  2**0
                  CONTENTS, READONLY, DEBUGGING
  6 .debug_abbrev 000031df  00000000  00000000  0000393d  2**0
                  CONTENTS, READONLY, DEBUGGING
  7 .debug_line   000004bf  00000000  00000000  00006b1c  2**0
                  CONTENTS, READONLY, DEBUGGING
  8 .debug_frame  00000024  00000000  00000000  00006fdc  2**2
                  CONTENTS, READONLY, DEBUGGING
  9 .debug_str    00002466  00000000  00000000  00007000  2**0
                  CONTENTS, READONLY, DEBUGGING
 10 .debug_ranges 00000010  00000000  00000000  00009466  2**0
                  CONTENTS, READONLY, DEBUGGING

Disassembly of section .text:

00000000 <__vectors>:
   0:	0c 94 fe 00 	jmp	0x1fc	; 0x1fc <__ctors_end>
   4:	0c 94 0a 01 	jmp	0x214	; 0x214 <__bad_interrupt>
   8:	0c 94 0a 01 	jmp	0x214	; 0x214 <__bad_interrupt>
   c:	0c 94 0a 01 	jmp	0x214	; 0x214 <__bad_interrupt>
  10:	0c 94 0a 01 	jmp	0x214	; 0x214 <__bad_interrupt>
  14:	0c 94 0a 01 	jmp	0x214	; 0x214 <__bad_interrupt>
  18:	0c 94 0a 01 	jmp	0x214	; 0x214 <__bad_interrupt>
  1c:	0c 94 0a 01 	jmp	0x214	; 0x214 <__bad_interrupt>
  20:	0c 94 0a 01 	jmp	0x214	; 0x214 <__bad_interrupt>
  24:	0c 94 0a 01 	jmp	0x214	; 0x214 <__bad_interrupt>
  28:	0c 94 0a 01 	jmp	0x214	; 0x214 <__bad_interrupt>
  2c:	0c 94 0a 01 	jmp	0x214	; 0x214 <__bad_interrupt>
  30:	0c 94 0a 01 	jmp	0x214	; 0x214 <__bad_interrupt>
  34:	0c 94 0a 01 	jmp	0x214	; 0x214 <__bad_interrupt>
  38:	0c 94 0a 01 	jmp	0x214	; 0x214 <__bad_interrupt>
  3c:	0c 94 0a 01 	jmp	0x214	; 0x214 <__bad_interrupt>
  40:	0c 94 0a 01 	jmp	0x214	; 0x214 <__bad_interrupt>
  44:	0c 94 0a 01 	jmp	0x214	; 0x214 <__bad_interrupt>
  48:	0c 94 0a 01 	jmp	0x214	; 0x214 <__bad_interrupt>
  4c:	0c 94 0a 01 	jmp	0x214	; 0x214 <__bad_interrupt>
  50:	0c 94 0a 01 	jmp	0x214	; 0x214 <__bad_interrupt>
  54:	0c 94 0a 01 	jmp	0x214	; 0x214 <__bad_interrupt>
  58:	0c 94 0a 01 	jmp	0x214	; 0x214 <__bad_interrupt>
  5c:	0c 94 0a 01 	jmp	0x214	; 0x214 <__bad_interrupt>
  60:	0c 94 0a 01 	jmp	0x214	; 0x214 <__bad_interrupt>
  64:	0c 94 0a 01 	jmp	0x214	; 0x214 <__bad_interrupt>
  68:	0c 94 0a 01 	jmp	0x214	; 0x214 <__bad_interrupt>
  6c:	0c 94 0a 01 	jmp	0x214	; 0x214 <__bad_interrupt>
  70:	0c 94 0a 01 	jmp	0x214	; 0x214 <__bad_interrupt>
  74:	0c 94 0a 01 	jmp	0x214	; 0x214 <__bad_interrupt>
  78:	0c 94 0a 01 	jmp	0x214	; 0x214 <__bad_interrupt>
  7c:	0c 94 0a 01 	jmp	0x214	; 0x214 <__bad_interrupt>
  80:	0c 94 0a 01 	jmp	0x214	; 0x214 <__bad_interrupt>
  84:	0c 94 0a 01 	jmp	0x214	; 0x214 <__bad_interrupt>
  88:	0c 94 0a 01 	jmp	0x214	; 0x214 <__bad_interrupt>
  8c:	0c 94 0a 01 	jmp	0x214	; 0x214 <__bad_interrupt>
  90:	0c 94 0a 01 	jmp	0x214	; 0x214 <__bad_interrupt>
  94:	0c 94 0a 01 	jmp	0x214	; 0x214 <__bad_interrupt>
  98:	0c 94 0a 01 	jmp	0x214	; 0x214 <__bad_interrupt>
  9c:	0c 94 0a 01 	jmp	0x214	; 0x214 <__bad_interrupt>
  a0:	0c 94 0a 01 	jmp	0x214	; 0x214 <__bad_interrupt>
  a4:	0c 94 0a 01 	jmp	0x214	; 0x214 <__bad_interrupt>
  a8:	0c 94 0a 01 	jmp	0x214	; 0x214 <__bad_interrupt>
  ac:	0c 94 0a 01 	jmp	0x214	; 0x214 <__bad_interrupt>
  b0:	0c 94 0a 01 	jmp	0x214	; 0x214 <__bad_interrupt>
  b4:	0c 94 0a 01 	jmp	0x214	; 0x214 <__bad_interrupt>
  b8:	0c 94 0a 01 	jmp	0x214	; 0x214 <__bad_interrupt>
  bc:	0c 94 0a 01 	jmp	0x214	; 0x214 <__bad_interrupt>
  c0:	0c 94 0a 01 	jmp	0x214	; 0x214 <__bad_interrupt>
  c4:	0c 94 0a 01 	jmp	0x214	; 0x214 <__bad_interrupt>
  c8:	0c 94 0a 01 	jmp	0x214	; 0x214 <__bad_interrupt>
  cc:	0c 94 0a 01 	jmp	0x214	; 0x214 <__bad_interrupt>
  d0:	0c 94 0a 01 	jmp	0x214	; 0x214 <__bad_interrupt>
  d4:	0c 94 0a 01 	jmp	0x214	; 0x214 <__bad_interrupt>
  d8:	0c 94 0a 01 	jmp	0x214	; 0x214 <__bad_interrupt>
  dc:	0c 94 0a 01 	jmp	0x214	; 0x214 <__bad_interrupt>
  e0:	0c 94 0a 01 	jmp	0x214	; 0x214 <__bad_interrupt>
  e4:	0c 94 0a 01 	jmp	0x214	; 0x214 <__bad_interrupt>
  e8:	0c 94 0a 01 	jmp	0x214	; 0x214 <__bad_interrupt>
  ec:	0c 94 0a 01 	jmp	0x214	; 0x214 <__bad_interrupt>
  f0:	0c 94 0a 01 	jmp	0x214	; 0x214 <__bad_interrupt>
  f4:	0c 94 0a 01 	jmp	0x214	; 0x214 <__bad_interrupt>
  f8:	0c 94 0a 01 	jmp	0x214	; 0x214 <__bad_interrupt>
  fc:	0c 94 0a 01 	jmp	0x214	; 0x214 <__bad_interrupt>
 100:	0c 94 0a 01 	jmp	0x214	; 0x214 <__bad_interrupt>
 104:	0c 94 0a 01 	jmp	0x214	; 0x214 <__bad_interrupt>
 108:	0c 94 0a 01 	jmp	0x214	; 0x214 <__bad_interrupt>
 10c:	0c 94 0a 01 	jmp	0x214	; 0x214 <__bad_interrupt>
 110:	0c 94 0a 01 	jmp	0x214	; 0x214 <__bad_interrupt>
 114:	0c 94 0a 01 	jmp	0x214	; 0x214 <__bad_interrupt>
 118:	0c 94 0a 01 	jmp	0x214	; 0x214 <__bad_interrupt>
 11c:	0c 94 0a 01 	jmp	0x214	; 0x214 <__bad_interrupt>
 120:	0c 94 0a 01 	jmp	0x214	; 0x214 <__bad_interrupt>
 124:	0c 94 0a 01 	jmp	0x214	; 0x214 <__bad_interrupt>
 128:	0c 94 0a 01 	jmp	0x214	; 0x214 <__bad_interrupt>
 12c:	0c 94 0a 01 	jmp	0x214	; 0x214 <__bad_interrupt>
 130:	0c 94 0a 01 	jmp	0x214	; 0x214 <__bad_interrupt>
 134:	0c 94 0a 01 	jmp	0x214	; 0x214 <__bad_interrupt>
 138:	0c 94 0a 01 	jmp	0x214	; 0x214 <__bad_interrupt>
 13c:	0c 94 0a 01 	jmp	0x214	; 0x214 <__bad_interrupt>
 140:	0c 94 0a 01 	jmp	0x214	; 0x214 <__bad_interrupt>
 144:	0c 94 0a 01 	jmp	0x214	; 0x214 <__bad_interrupt>
 148:	0c 94 0a 01 	jmp	0x214	; 0x214 <__bad_interrupt>
 14c:	0c 94 0a 01 	jmp	0x214	; 0x214 <__bad_interrupt>
 150:	0c 94 0a 01 	jmp	0x214	; 0x214 <__bad_interrupt>
 154:	0c 94 0a 01 	jmp	0x214	; 0x214 <__bad_interrupt>
 158:	0c 94 0a 01 	jmp	0x214	; 0x214 <__bad_interrupt>
 15c:	0c 94 0a 01 	jmp	0x214	; 0x214 <__bad_interrupt>
 160:	0c 94 0a 01 	jmp	0x214	; 0x214 <__bad_interrupt>
 164:	0c 94 0a 01 	jmp	0x214	; 0x214 <__bad_interrupt>
 168:	0c 94 0a 01 	jmp	0x214	; 0x214 <__bad_interrupt>
 16c:	0c 94 0a 01 	jmp	0x214	; 0x214 <__bad_interrupt>
 170:	0c 94 0a 01 	jmp	0x214	; 0x214 <__bad_interrupt>
 174:	0c 94 0a 01 	jmp	0x214	; 0x214 <__bad_interrupt>
 178:	0c 94 0a 01 	jmp	0x214	; 0x214 <__bad_interrupt>
 17c:	0c 94 0a 01 	jmp	0x214	; 0x214 <__bad_interrupt>
 180:	0c 94 0a 01 	jmp	0x214	; 0x214 <__bad_interrupt>
 184:	0c 94 0a 01 	jmp	0x214	; 0x214 <__bad_interrupt>
 188:	0c 94 0a 01 	jmp	0x214	; 0x214 <__bad_interrupt>
 18c:	0c 94 0a 01 	jmp	0x214	; 0x214 <__bad_interrupt>
 190:	0c 94 0a 01 	jmp	0x214	; 0x214 <__bad_interrupt>
 194:	0c 94 0a 01 	jmp	0x214	; 0x214 <__bad_interrupt>
 198:	0c 94 0a 01 	jmp	0x214	; 0x214 <__bad_interrupt>
 19c:	0c 94 0a 01 	jmp	0x214	; 0x214 <__bad_interrupt>
 1a0:	0c 94 0a 01 	jmp	0x214	; 0x214 <__bad_interrupt>
 1a4:	0c 94 0a 01 	jmp	0x214	; 0x214 <__bad_interrupt>
 1a8:	0c 94 0a 01 	jmp	0x214	; 0x214 <__bad_interrupt>
 1ac:	0c 94 0a 01 	jmp	0x214	; 0x214 <__bad_interrupt>
 1b0:	0c 94 0a 01 	jmp	0x214	; 0x214 <__bad_interrupt>
 1b4:	0c 94 0a 01 	jmp	0x214	; 0x214 <__bad_interrupt>
 1b8:	0c 94 0a 01 	jmp	0x214	; 0x214 <__bad_interrupt>
 1bc:	0c 94 0a 01 	jmp	0x214	; 0x214 <__bad_interrupt>
 1c0:	0c 94 0a 01 	jmp	0x214	; 0x214 <__bad_interrupt>
 1c4:	0c 94 0a 01 	jmp	0x214	; 0x214 <__bad_interrupt>
 1c8:	0c 94 0a 01 	jmp	0x214	; 0x214 <__bad_interrupt>
 1cc:	0c 94 0a 01 	jmp	0x214	; 0x214 <__bad_interrupt>
 1d0:	0c 94 0a 01 	jmp	0x214	; 0x214 <__bad_interrupt>
 1d4:	0c 94 0a 01 	jmp	0x214	; 0x214 <__bad_interrupt>
 1d8:	0c 94 0a 01 	jmp	0x214	; 0x214 <__bad_interrupt>
 1dc:	0c 94 0a 01 	jmp	0x214	; 0x214 <__bad_interrupt>
 1e0:	0c 94 0a 01 	jmp	0x214	; 0x214 <__bad_interrupt>
 1e4:	0c 94 0a 01 	jmp	0x214	; 0x214 <__bad_interrupt>
 1e8:	0c 94 0a 01 	jmp	0x214	; 0x214 <__bad_interrupt>
 1ec:	0c 94 0a 01 	jmp	0x214	; 0x214 <__bad_interrupt>
 1f0:	0c 94 0a 01 	jmp	0x214	; 0x214 <__bad_interrupt>
 1f4:	0c 94 0a 01 	jmp	0x214	; 0x214 <__bad_interrupt>
 1f8:	0c 94 0a 01 	jmp	0x214	; 0x214 <__bad_interrupt>

000001fc <__ctors_end>:
 1fc:	11 24       	eor	r1, r1
 1fe:	1f be       	out	0x3f, r1	; 63
 200:	cf ef       	ldi	r28, 0xFF	; 255
 202:	cd bf       	out	0x3d, r28	; 61
 204:	df e5       	ldi	r29, 0x5F	; 95
 206:	de bf       	out	0x3e, r29	; 62
 208:	00 e0       	ldi	r16, 0x00	; 0
 20a:	0c bf       	out	0x3c, r16	; 60
 20c:	0e 94 0c 01 	call	0x218	; 0x218 <main>
 210:	0c 94 16 01 	jmp	0x22c	; 0x22c <_exit>

00000214 <__bad_interrupt>:
 214:	0c 94 00 00 	jmp	0	; 0x0 <__vectors>

00000218 <main>:


int main(void)
{
	//outputs
    PORTC.DIRSET = PIN0_bm | PIN1_bm | PIN3_bm;
 218:	8b e0       	ldi	r24, 0x0B	; 11
 21a:	80 93 41 06 	sts	0x0641, r24	; 0x800641 <__TEXT_REGION_LENGTH__+0x700641>
	
	
	while(1){
		//enable and set to forwards
		PORTC.OUTSET = PIN1_bm | PIN3_bm;
 21e:	e0 e4       	ldi	r30, 0x40	; 64
 220:	f6 e0       	ldi	r31, 0x06	; 6
 222:	9a e0       	ldi	r25, 0x0A	; 10
		PORTC.OUTCLR = PIN0_bm;
 224:	81 e0       	ldi	r24, 0x01	; 1
    PORTC.DIRSET = PIN0_bm | PIN1_bm | PIN3_bm;
	
	
	while(1){
		//enable and set to forwards
		PORTC.OUTSET = PIN1_bm | PIN3_bm;
 226:	95 83       	std	Z+5, r25	; 0x05
		PORTC.OUTCLR = PIN0_bm;
 228:	86 83       	std	Z+6, r24	; 0x06
 22a:	fd cf       	rjmp	.-6      	; 0x226 <main+0xe>

0000022c <_exit>:
 22c:	f8 94       	cli

0000022e <__stop_program>:
 22e:	ff cf       	rjmp	.-2      	; 0x22e <__stop_program>
