S0110000524D45435F66756C6C2E73726563DA
S11300000C94FE000C941F010C94A3010C94C801E1
S11300100C941F010C941F010C941F010C941F01DC
S11300200C941F010C941F010C941F010C941F01CC
S11300300C941F010C941F010C941F010C941F01BC
S11300400C941F010C941F010C941F010C941F01AC
S11300500C94F8010C941F010C941F010C941F01C3
S11300600C941F010C941F010C941F010C941F018C
S11300700C941F010C941F010C941F010C941F017C
S11300800C941F010C941F010C941F010C941F016C
S11300900C941F010C941F010C941F010C941F015C
S11300A00C941F010C941F010C941F010C941F014C
S11300B00C941F010C941F010C941F010C941F013C
S11300C00C941F010C941F010C941F010C941F012C
S11300D00C941F010C941F010C941F010C941F011C
S11300E00C941F010C941F010C941F010C941F010C
S11300F00C941F010C941F010C941F010C941F01FC
S11301000C941F010C941F010C941F010C941F01EB
S11301100C941F010C941F010C941F010C941F01DB
S11301200C941F010C941F010C941F010C941F01CB
S11301300C941F010C941F010C941F010C941F01BB
S11301400C941F010C941F010C941F010C941F01AB
S11301500C941F010C941F010C941F010C941F019B
S11301600C941F010C941F010C941F010C941F018B
S11301700C941F010C941F010C941F010C941F017B
S11301800C941F010C941F010C941F010C941F016B
S11301900C941F010C941F010C941F010C941F015B
S11301A00C941F010C941F010C941F010C941F014B
S11301B00C941F010C941F010C941F010C941F013B
S11301C00C941F010C941F010C941F010C941F012B
S11301D00C941F010C941F010C941F010C941F011B
S11301E00C941F010C941F010C941F010C941F010B
S11301F00C941F010C941F010C941F0111241FBEA9
S1130200CFEFCDBFDFE5DEBF00E00CBF10E2A0E022
S1130210B0E2E6E8FAE000E00BBF02C007900D92FE
S1130220A030B107D9F720E2A0E0B0E201C01D92EE
S1130230A235B207E1F70E943F020C9441050C94E9
S11302400000E0E5F0E083EC828388E08083818134
S113025083FFFDCFE0E5F0E083EC8583808180615E
S11302608083818184FFFDCF88ED84BF84E0809307
S11302704000089580FF09C0E0E2F3E0958190FF1B
S1130280FDCF609338037093390381FF09C0E0E226
S1130290F3E0858181FFFDCF60933A0370933B03C4
S11302A00895CF93C82F88E080932203C23021F4AD
S11302B080E48093210307C010922103C0FD03C092
S11302C0C1FF23C017C0E0E2F3E080818560808332
S11302D060E070E081E00E943A01C1FF16C0E0E2F4
S11302E0F3E080818960808360E070E082E00E94B6
S11302F03A010BC0E0E2F3E080818560808360E036
S113030070E081E00E943A01EACFCF910895E1E4E0
S1130310F6E02081297F2083E0E4F6E024E02187D1
S113032032E03287318B238721E0228B1092022026
S1130330109203206093042070930520809306207C
S11303409093072008951F920F920FB60F921124D5
S11303508F939F938091480682FD0AC0809102206A
S1130360909103200A96809302209093032009C061
S113037080910220909103200A9780930220909309
S113038003209F918F910F900FBE0F901F9018958F
S11303901F920F920FB60F9211248F939F93809107
S11303A0480681FF0AC080910220909103200A969A
S11303B0809302209093032009C0809102209091A1
S11303C003200A9780930220909303209F918F919A
S11303D00F900FBE0F901F901895E0E4F8E081E0B5
S11303E0808380EC86AB8DE587AB82E086830895BD
S11303F01F920F920FB60F9211240BB60F922F93E8
S11304003F934F935F936F937F938F939F93AF9398
S1130410BF93EF93FF938091002090910120019668
S1130420809300209093012068EE73E00E942D05D4
S1130430892B19F484E08093830640E050E060E265
S113044072E488E490E20E94BB0240E050E0BA010A
S113045088E090E20E94BB02FF91EF91BF91AF91BF
S11304609F918F917F916F915F914F913F912F91C8
S11304700F900BBE0F900FBE0F901F9018950E9407
S113048021017894E0EAF0E0828187608283E0E8E9
S1130490F6E081818C608183E0E2F6E081818C600A
S11304A0818382E00E94510160E070E080E89FE374
S11304B00E948701C0E4D6E08981836089830F2E7E
S11304C0F4E1EF2EF12CF02D00E81BEB20E141E0EC
S11304D060E078E088E490E20E94060320E241E0D4
S11304E060E078E088E090E20E940603E2E2F6E051
S11304F080818160808320E040E652E060E472E025
S113050082E190E20E9438038CE080938106898125
S1130510886089838D8188608D830E94ED01FFCF7F
S1130520FC019381903131F40190F081E02D60AFB2
S113053071AF0895903249F4A081B181DB967C9328
S11305400190F081E02D62AF0895903449F4A081C8
S1130550B181DD967C930190F081E02D64AF089524
S1130560903841F4A081B181DF967C930190F081B1
S1130570E02D66AF0895CF92DF92EF92FF92CF9372
S1130580DF93EC016A017B0120E030E0A901C7019F
S1130590B6010E944F038823ACF020E030E048EC21
S11305A052E4C701B6010E94A70418167CF020E0AB
S11305B030E048EC52E4C701B6010E9454036B01D9
S11305C07C010CC0C12CD12C760108C00F2EC12C8B
S11305D0D12CF0E8EF2EFFE3FF2EF02D688579850E
S11305E0072E000C880B990B0E94F703A7019601B4
S11305F00E94AC040E94C603CE010E949002DF91C7
S1130600CF91FF90EF90DF90CF900895EF92FF92FB
S11306100F931F93CF93DF93FC01EB01B701C083CA
S1130620D1834283238304831583E682F78248833C
S113063099819360292B2983C8010E941905262FCB
S1130640372F20873187332354F0CF016EAB7FAB34
S113065060E070E00E94900280E090E002C08FEFC2
S11306609FEFDF91CF911F910F91FF90EF9008952D
S1130670FB01DC016D937C93119712964D935C936F
S1130680139781E0808388E0818380E1828387E01F
S113069084838FE1FA0180832760218308950E9477
S11306A0320408F481E008950E9468030C946D04F8
S11306B00E94660458F00E945F0440F029F45F3FF2
S11306C029F00C94560451110C94A1040C945C046C
S11306D00E947E0468F39923B1F3552391F3951B8B
S11306E0550BBB27AA2762177307840738F09F5F4F
S11306F05F4F220F331F441FAA1FA9F335D00E2EBC
S11307003AF0E0E832D091505040E695001CCAF728
S11307102BD0FE2F29D0660F771F881FBB1F2617EB
S113072037074807AB07B0E809F0BB0B802DBF01C2
S1130730FF2793585F4F3AF09E3F510578F00C9491
S113074056040C94A1045F3FE4F3983ED4F38695D9
S113075077956795B795F7959F5FC9F7880F911DB2
S11307609695879597F90895E1E0660F771F881F9E
S1130770BB1F621773078407BA0720F0621B730B51
S1130780840BBA0BEE1F88F7E09508950E94860447
S113079088F09F5798F0B92F9927B751B0F0E1F03E
S11307A0660F771F881F991F1AF0BA95C9F714C0EE
S11307B0B13091F00E94A004B1E008950C94A0041B
S11307C0672F782F8827B85F39F0B93FCCF3869527
S11307D077956795B395D9F73EF490958095709584
S11307E061957F4F8F4F9F4F0895E89409C097FB01
S11307F03EF490958095709561957F4F8F4F9F4FF4
S11308009923A9F0F92F96E9BB279395F695879537
S113081077956795B795F111F8CFFAF4BB0F11F4FA
S113082060FF1BC06F5F7F4F8F4F9F4F16C08823A1
S113083011F096E911C0772321F09EE8872F762FD7
S113084005C0662371F096E8862F70E060E02AF018
S11308509A95660F771F881FDAF7880F9695879504
S113086097F90895990F0008550FAA0BE0E8FEEFD9
S113087016161706E807F907C0F012161306E40760
S1130880F50798F0621B730B840B950B39F40A2659
S113089061F0232B242B252B21F408950A2609F437
S11308A0A140A6958FEF811D811D089597F99F673B
S11308B080E870E060E008959FEF80EC08950024E4
S11308C00A941616170618060906089500240A94B1
S11308D012161306140605060895092E0394000C37
S11308E011F4882352F0BB0F40F4BF2B11F460FFC6
S11308F004C06F5F7F4F8F4F9F4F089557FD9058EF
S1130900440F551F59F05F3F71F04795880F97FBCF
S1130910991F61F09F3F79F0879508951216130689
S11309201406551FF2CF4695F1DF08C016161706B8
S11309301806991FF1CF86957105610508940895ED
S1130940E894BB2766277727CB0197F908950E947F
S1130950320408F48FEF08950E94BF040C946D04D0
S11309600E945F0438F00E94660420F0952311F081
S11309700C9456040C945C0411240C94A1040E945D
S11309807E0470F3959FC1F3950F50E0551F629F4D
S1130990F001729FBB27F00DB11D639FAA27F00DD4
S11309A0B11DAA1F649F6627B00DA11D661F829FFB
S11309B02227B00DA11D621F739FB00DA11D621FE0
S11309C0839FA00D611D221F749F3327A00D611DFD
S11309D0231F849F600D211D822F762F6A2F1124DF
S11309E09F5750409AF0F1F088234AF0EE0FFF1F12
S11309F0BB1F661F771F881F91505040A9F79E3F69
S1130A00510580F00C9456040C94A1045F3FE4F368
S1130A10983ED4F3869577956795B795F795E795BE
S1130A209F5FC1F7FE2B880F911D9695879597F9C7
S1130A300895AA1BBB1B51E107C0AA1FBB1FA61721
S1130A40B70710F0A61BB70B881F991F5A95A9F773
S1130A5080959095BC01CD01089597FB072E16F45F
S1130A60009407D077FD09D00E94190507FC05D032
S1130A703EF4909581959F4F0895709561957F4FB1
S1090A800895F894FFCF75
S9030000FC
