S0110000524D45435F6F6E6C792E73726563CB
S11300000C94FE000C9412010C9412010C94120135
S11300100C9412010C9412010C9412010C94120110
S11300200C9412010C9412010C9412010C94120100
S11300300C9412010C9412010C9412010C941201F0
S11300400C9412010C9412010C9412010C941201E0
S11300500C9447010C9412010C9412010C9412019B
S11300600C9412010C9412010C9412010C941201C0
S11300700C9412010C9412010C9412010C941201B0
S11300800C9412010C9412010C9412010C941201A0
S11300900C9412010C9412010C9412010C94120190
S11300A00C9412010C9412010C9412010C94120180
S11300B00C9412010C9412010C9412010C94120170
S11300C00C9412010C9412010C9412010C94120160
S11300D00C9412010C9412010C9412010C94120150
S11300E00C9412010C9412010C9412010C94120140
S11300F00C9412010C9412010C9412010C94120130
S11301000C9412010C9412010C9412010C9412011F
S11301100C9412010C9412010C9412010C9412010F
S11301200C9412010C9412010C9412010C941201FF
S11301300C9412010C9412010C9412010C941201EF
S11301400C9412010C9412010C9412010C941201DF
S11301500C9412010C9412010C9412010C941201CF
S11301600C9412010C9412010C9412010C941201BF
S11301700C9412010C9412010C9412010C941201AF
S11301800C9412010C9412010C9412010C9412019F
S11301900C9412010C9412010C9412010C9412018F
S11301A00C9412010C9412010C9412010C9412017F
S11301B00C9412010C9412010C9412010C9412016F
S11301C00C9412010C9412010C9412010C9412015F
S11301D00C9412010C9412010C9412010C9412014F
S11301E00C9412010C9412010C9412010C9412013F
S11301F00C9412010C9412010C94120111241FBED0
S1130200CFEFCDBFDFE5DEBF00E00CBF20E2A0E012
S1130210B0E201C01D92A630B207E1F70E94380196
S11302200C944C040C940000E0E5F0E083EC828331
S113023088E08083818183FFFDCFE0E5F0E083ECFB
S11302408583808180618083818184FFFDCF88EDF7
S113025084BF84E0809340000895E0E4F8E085E002
S1130260808380EC9DE586AB97AB82E0868308951E
S11302700E9414017894E0EAF0E08281876082832E
S11302800E942D0180E89BEB0E941D02FFCF1F926C
S11302900F920FB60F9211240BB60F922F933F9328
S11302A04F935F936F937F938F939F93AF93BF937A
S11302B0EF93FF9380910220909103200296809304
S11302C00220909303208F709927892B19F484E0DE
S11302D0809383068091002090910120892BA1F4C2
S11302E0809102209091032068EC70E00E94240425
S11302F0BC0164567109072E000C880B990B0E94EF
S113030007030E94C00114C0809102209091032031
S113031068EC70E00E94240464E670E0681B790BCA
S1130320072E000C880B990B0E9407030E94C00142
S11303308091002090910120843691053CF081E069
S113034090E0809300209093012007C08D399F4F47
S113035024F41092002010920120FF91EF91BF919C
S1130360AF919F918F917F916F915F914F913F9149
S11303702F910F900BBE0F900FBE0F901F901895EA
S11303808F929F92AF92BF92CF92DF92EF92FF92A1
S11303906B017C010E94CF029B01772324F4222766
S11303A03327261B370BB901330F880B990B0E9497
S11303B0070320E030E048EC52E40E945D024B0168
S11303C05C01609104207091052080E090E00E941F
S11303D005039B01AC01C501B4010E94B7030E944F
S11303E0D6024B015C0120E030E0A901C701B6014F
S11303F00E94580288233CF4E0E0F8E080AE91AE1D
S113040012AE13AE06C0E0E0F8E010AE11AE82AE5C
S113041093AEFF90EF90DF90CF90BF90AF909F90FE
S11304208F9008958091042090910520E0E0F8E0F9
S113043082AF93AF80AF91AF0895CF93DF93E0E0A5
S1130440F8E021E0208323E3218364E170E00E944B
S11304502404609304207093052066AB77ABC0E45A
S1130460D6E08981836089830E941202E0E4F2E08D
S113047080818160808381818860818380E182833F
S113048097E09483A0E2B6E012968C911297816073
S113049012968C938FE180A391A3898188608983CC
S11304A08D8188608D8380E090E0DF91CF91089505
S11304B00E94420308F481E008950E9471020C94A2
S11304C07D030E94760358F00E946F0340F029F4E4
S11304D05F3F29F00C94660351110C94B1030C9402
S11304E06C030E948E0368F39923B1F3552391F3AF
S11304F0951B550BBB27AA2762177307840738F08F
S11305009F5F5F4F220F331F441FAA1FA9F335D0EB
S11305100E2E3AF0E0E832D091505040E695001C9F
S1130520CAF72BD0FE2F29D0660F771F881FBB1F59
S1130530261737074807AB07B0E809F0BB0B802D37
S1130540BF01FF2793585F4F3AF09E3F510578F063
S11305500C9466030C94B1035F3FE4F3983ED4F328
S1130560869577956795B795F7959F5FC9F7880F37
S1130570911D9695879597F90895E1E0660F771F89
S1130580881FBB1F621773078407BA0720F0621B1A
S1130590730B840BBA0BEE1F88F7E09508950E9445
S11305A0D6026894B1110C94B10308950E94960385
S11305B088F09F5798F0B92F9927B751B0F0E1F020
S11305C0660F771F881F991F1AF0BA95C9F714C0D0
S11305D0B13091F00E94B003B1E008950C94B003DF
S11305E0672F782F8827B85F39F0B93FCCF3869509
S11305F077956795B395D9F73EF490958095709566
S113060061957F4F8F4F9F4F0895E89409C097FBE2
S11306103EF490958095709561957F4F8F4F9F4FD5
S11306209923A9F0F92F96E9BB279395F695879519
S113063077956795B795F111F8CFFAF4BB0F11F4DC
S113064060FF1BC06F5F7F4F8F4F9F4F16C0882383
S113065011F096E911C0772321F09EE8872F762FB9
S113066005C0662371F096E8862F70E060E02AF0FA
S11306709A95660F771F881FDAF7880F96958795E6
S113068097F90895990F0008550FAA0BE0E8FEEFBB
S113069016161706E807F907C0F012161306E40742
S11306A0F50798F0621B730B840B950B39F40A263B
S11306B061F0232B242B252B21F408950A2609F419
S11306C0A140A6958FEF811D811D089597F99F671D
S11306D080E870E060E008959FEF80EC08950024C6
S11306E00A941616170618060906089500240A9493
S11306F012161306140605060895092E0394000C19
S113070011F4882352F0BB0F40F4BF2B11F460FFA7
S113071004C06F5F7F4F8F4F9F4F089557FD9058D0
S1130720440F551F59F05F3F71F04795880F97FBB1
S1130730991F61F09F3F79F087950895121613066B
S11307401406551FF2CF4695F1DF08C0161617069A
S11307501806991FF1CF86957105610508940895CF
S1130760E894BB2766277727CB0197F908950E9461
S1130770CA030C947D030E946F0338F00E94760331
S113078020F0952311F00C9466030C946C0311244F
S11307900C94B1030E948E0370F3959FC1F3950FDF
S11307A050E0551F629FF001729FBB27F00DB11DF1
S11307B0639FAA27F00DB11DAA1F649F6627B00D81
S11307C0A11D661F829F2227B00DA11D621F739F6A
S11307D0B00DA11D621F839FA00D611D221F749F78
S11307E03327A00D611D231F849F600D211D822FBF
S11307F0762F6A2F11249F5750409AF0F1F08823E6
S11308004AF0EE0FFF1FBB1F661F771F881F915012
S11308105040A9F79E3F510580F00C9466030C9458
S1130820B1035F3FE4F3983ED4F3869577956795DB
S1130830B795F795E7959F5FC1F7FE2B880F911D3C
S11308409695879597F9089597FB072E16F40094CB
S113085007D077FD09D00E94380407FC05D03EF488
S1130860909581959F4F0895709561957F4F089558
S1130870AA1BBB1B51E107C0AA1FBB1FA617B707C2
S113088010F0A61BB70B881F991F5A95A9F78095DE
S10F08909095BC01CD010895F894FFCFB1
S9030000FC
